{
  "_format": "hh-sol-artifact-1",
  "contractName": "SecretTextContract",
  "sourceName": "contracts/SecretTextContract.sol",
  "abi": [
    {
      "inputs": [],
      "stateMutability": "nonpayable",
      "type": "constructor"
    },
    {
      "anonymous": false,
      "inputs": [
        {
          "indexed": true,
          "internalType": "address",
          "name": "newBuyerAddress",
          "type": "address"
        }
      ],
      "name": "BuyerAddressSet",
      "type": "event"
    },
    {
      "anonymous": false,
      "inputs": [
        {
          "indexed": false,
          "internalType": "bool",
          "name": "newStatus",
          "type": "bool"
        }
      ],
      "name": "ConfirmSecretStatusSet",
      "type": "event"
    },
    {
      "anonymous": false,
      "inputs": [
        {
          "indexed": false,
          "internalType": "uint256",
          "name": "newPrice",
          "type": "uint256"
        }
      ],
      "name": "PriceSet",
      "type": "event"
    },
    {
      "anonymous": false,
      "inputs": [
        {
          "indexed": false,
          "internalType": "string",
          "name": "newSecretText",
          "type": "string"
        },
        {
          "indexed": false,
          "internalType": "address",
          "name": "setter",
          "type": "address"
        }
      ],
      "name": "SecretTextChanged",
      "type": "event"
    },
    {
      "anonymous": false,
      "inputs": [
        {
          "indexed": true,
          "internalType": "address",
          "name": "newSellerAddress",
          "type": "address"
        }
      ],
      "name": "SellerAddressSet",
      "type": "event"
    },
    {
      "anonymous": false,
      "inputs": [
        {
          "indexed": true,
          "internalType": "address",
          "name": "staker",
          "type": "address"
        },
        {
          "indexed": false,
          "internalType": "uint256",
          "name": "amount",
          "type": "uint256"
        }
      ],
      "name": "StakeAdded",
      "type": "event"
    },
    {
      "anonymous": false,
      "inputs": [
        {
          "indexed": true,
          "internalType": "address",
          "name": "owner",
          "type": "address"
        },
        {
          "indexed": false,
          "internalType": "uint256",
          "name": "amount",
          "type": "uint256"
        }
      ],
      "name": "StakePaidToSeller",
      "type": "event"
    },
    {
      "anonymous": false,
      "inputs": [
        {
          "indexed": true,
          "internalType": "address",
          "name": "staker",
          "type": "address"
        },
        {
          "indexed": false,
          "internalType": "uint256",
          "name": "amount",
          "type": "uint256"
        }
      ],
      "name": "StakeReturned",
      "type": "event"
    },
    {
      "inputs": [
        {
          "internalType": "address",
          "name": "_address",
          "type": "address"
        }
      ],
      "name": "addAllowedAddress",
      "outputs": [],
      "stateMutability": "nonpayable",
      "type": "function"
    },
    {
      "inputs": [],
      "name": "addStake",
      "outputs": [],
      "stateMutability": "payable",
      "type": "function"
    },
    {
      "inputs": [
        {
          "internalType": "address",
          "name": "",
          "type": "address"
        }
      ],
      "name": "allowedAddresses",
      "outputs": [
        {
          "internalType": "bool",
          "name": "",
          "type": "bool"
        }
      ],
      "stateMutability": "view",
      "type": "function"
    },
    {
      "inputs": [],
      "name": "buyerAddress",
      "outputs": [
        {
          "internalType": "address",
          "name": "",
          "type": "address"
        }
      ],
      "stateMutability": "view",
      "type": "function"
    },
    {
      "inputs": [],
      "name": "confirmSecretStatus",
      "outputs": [
        {
          "internalType": "bool",
          "name": "",
          "type": "bool"
        }
      ],
      "stateMutability": "view",
      "type": "function"
    },
    {
      "inputs": [],
      "name": "getSecretText",
      "outputs": [
        {
          "internalType": "string",
          "name": "",
          "type": "string"
        }
      ],
      "stateMutability": "view",
      "type": "function"
    },
    {
      "inputs": [],
      "name": "owner",
      "outputs": [
        {
          "internalType": "address",
          "name": "",
          "type": "address"
        }
      ],
      "stateMutability": "view",
      "type": "function"
    },
    {
      "inputs": [],
      "name": "payStakeToSeller",
      "outputs": [],
      "stateMutability": "nonpayable",
      "type": "function"
    },
    {
      "inputs": [],
      "name": "price",
      "outputs": [
        {
          "internalType": "uint256",
          "name": "",
          "type": "uint256"
        }
      ],
      "stateMutability": "view",
      "type": "function"
    },
    {
      "inputs": [
        {
          "internalType": "address",
          "name": "_address",
          "type": "address"
        }
      ],
      "name": "removeAllowedAddress",
      "outputs": [],
      "stateMutability": "nonpayable",
      "type": "function"
    },
    {
      "inputs": [],
      "name": "returnStake",
      "outputs": [],
      "stateMutability": "nonpayable",
      "type": "function"
    },
    {
      "inputs": [],
      "name": "sellerAddress",
      "outputs": [
        {
          "internalType": "address",
          "name": "",
          "type": "address"
        }
      ],
      "stateMutability": "view",
      "type": "function"
    },
    {
      "inputs": [
        {
          "internalType": "address",
          "name": "_buyerAddress",
          "type": "address"
        }
      ],
      "name": "setBuyerAddress",
      "outputs": [],
      "stateMutability": "nonpayable",
      "type": "function"
    },
    {
      "inputs": [
        {
          "internalType": "bool",
          "name": "_status",
          "type": "bool"
        }
      ],
      "name": "setConfirmSecretStatus",
      "outputs": [],
      "stateMutability": "nonpayable",
      "type": "function"
    },
    {
      "inputs": [
        {
          "internalType": "uint256",
          "name": "_price",
          "type": "uint256"
        }
      ],
      "name": "setPrice",
      "outputs": [],
      "stateMutability": "nonpayable",
      "type": "function"
    },
    {
      "inputs": [
        {
          "internalType": "string",
          "name": "_secretText",
          "type": "string"
        }
      ],
      "name": "setSecretText",
      "outputs": [],
      "stateMutability": "nonpayable",
      "type": "function"
    },
    {
      "inputs": [
        {
          "internalType": "address",
          "name": "_sellerAddress",
          "type": "address"
        }
      ],
      "name": "setSellerAddress",
      "outputs": [],
      "stateMutability": "nonpayable",
      "type": "function"
    },
    {
      "inputs": [
        {
          "internalType": "address",
          "name": "",
          "type": "address"
        }
      ],
      "name": "stakes",
      "outputs": [
        {
          "internalType": "uint256",
          "name": "",
          "type": "uint256"
        }
      ],
      "stateMutability": "view",
      "type": "function"
    }
  ],
  "bytecode": "0x608060405234801561001057600080fd5b50336000806101000a81548173ffffffffffffffffffffffffffffffffffffffff021916908373ffffffffffffffffffffffffffffffffffffffff160217905550611ada806100606000396000f3fe6080604052600436106101095760003560e01c80637ac665741161009557806393d1c44e1161006457806393d1c44e14610324578063a035b1fe1461034d578063a12df12e14610378578063f4d78965146103a1578063fac19988146103b857610109565b80637ac665741461029057806381788e2b146102a75780638da5cb5b146102d057806391b7f5ed146102fb57610109565b80633c9d93b8116100dc5780633c9d93b8146101ca5780633d9b2ae6146101f35780634120657a1461021e57806344834aca1461025b5780635a627dbc1461028657610109565b806310a5b9081461010e57806316934fc414610139578063172989ce146101765780631b697bb2146101a1575b600080fd5b34801561011a57600080fd5b506101236103e1565b60405161013091906116e5565b60405180910390f35b34801561014557600080fd5b50610160600480360381019061015b91906113a7565b6104ff565b60405161016d9190611817565b60405180910390f35b34801561018257600080fd5b5061018b610517565b60405161019891906116ca565b60405180910390f35b3480156101ad57600080fd5b506101c860048036038101906101c391906113a7565b61052a565b005b3480156101d657600080fd5b506101f160048036038101906101ec91906113a7565b61063f565b005b3480156101ff57600080fd5b50610208610728565b60405161021591906116af565b60405180910390f35b34801561022a57600080fd5b50610245600480360381019061024091906113a7565b61074e565b60405161025291906116ca565b60405180910390f35b34801561026757600080fd5b5061027061076e565b60405161027d91906116af565b60405180910390f35b61028e610794565b005b34801561029c57600080fd5b506102a561090e565b005b3480156102b357600080fd5b506102ce60048036038101906102c991906113a7565b610b22565b005b3480156102dc57600080fd5b506102e5610c0a565b6040516102f291906116af565b60405180910390f35b34801561030757600080fd5b50610322600480360381019061031d919061143a565b610c2e565b005b34801561033057600080fd5b5061034b600480360381019061034691906113f9565b610d01565b005b34801561035957600080fd5b50610362610de4565b60405161036f9190611817565b60405180910390f35b34801561038457600080fd5b5061039f600480360381019061039a91906113a7565b610dea565b005b3480156103ad57600080fd5b506103b6610eff565b005b3480156103c457600080fd5b506103df60048036038101906103da91906113d0565b611179565b005b6060600160003373ffffffffffffffffffffffffffffffffffffffff1673ffffffffffffffffffffffffffffffffffffffff16815260200190815260200160002060009054906101000a900460ff1661046f576040517f08c379a000000000000000000000000000000000000000000000000000000000815260040161046690611797565b60405180910390fd5b6004805461047c9061198f565b80601f01602080910402602001604051908101604052809291908181526020018280546104a89061198f565b80156104f55780601f106104ca576101008083540402835291602001916104f5565b820191906000526020600020905b8154815290600101906020018083116104d857829003601f168201915b5050505050905090565b60026020528060005260406000206000915090505481565b600560009054906101000a900460ff1681565b60008054906101000a900473ffffffffffffffffffffffffffffffffffffffff1673ffffffffffffffffffffffffffffffffffffffff163373ffffffffffffffffffffffffffffffffffffffff16146105b8576040517f08c379a00000000000000000000000000000000000000000000000000000000081526004016105af90611757565b60405180910390fd5b80600660006101000a81548173ffffffffffffffffffffffffffffffffffffffff021916908373ffffffffffffffffffffffffffffffffffffffff1602179055508073ffffffffffffffffffffffffffffffffffffffff167fcd02002fe332b099bf26c14f8402cf0fb088aeea918cae00c687a874a1017f6460405160405180910390a250565b60008054906101000a900473ffffffffffffffffffffffffffffffffffffffff1673ffffffffffffffffffffffffffffffffffffffff163373ffffffffffffffffffffffffffffffffffffffff16146106cd576040517f08c379a00000000000000000000000000000000000000000000000000000000081526004016106c490611757565b60405180910390fd5b6000600160008373ffffffffffffffffffffffffffffffffffffffff1673ffffffffffffffffffffffffffffffffffffffff16815260200190815260200160002060006101000a81548160ff02191690831515021790555050565b600560019054906101000a900473ffffffffffffffffffffffffffffffffffffffff1681565b60016020528060005260406000206000915054906101000a900460ff1681565b600660009054906101000a900473ffffffffffffffffffffffffffffffffffffffff1681565b600660009054906101000a900473ffffffffffffffffffffffffffffffffffffffff1673ffffffffffffffffffffffffffffffffffffffff163373ffffffffffffffffffffffffffffffffffffffff1614610824576040517f08c379a000000000000000000000000000000000000000000000000000000000815260040161081b906117b7565b60405180910390fd5b6003543414610868576040517f08c379a000000000000000000000000000000000000000000000000000000000815260040161085f90611777565b60405180910390fd5b34600260003373ffffffffffffffffffffffffffffffffffffffff1673ffffffffffffffffffffffffffffffffffffffff16815260200190815260200160002060008282546108b791906118af565b925050819055503373ffffffffffffffffffffffffffffffffffffffff167f7c717985ac273e663b7f3050f5b15a4388ff6ed952338954f650e2093e13937f346040516109049190611817565b60405180910390a2565b60008054906101000a900473ffffffffffffffffffffffffffffffffffffffff1673ffffffffffffffffffffffffffffffffffffffff163373ffffffffffffffffffffffffffffffffffffffff161461099c576040517f08c379a000000000000000000000000000000000000000000000000000000000815260040161099390611757565b60405180910390fd5b600060026000600560019054906101000a900473ffffffffffffffffffffffffffffffffffffffff1673ffffffffffffffffffffffffffffffffffffffff1673ffffffffffffffffffffffffffffffffffffffff16815260200190815260200160002054905060008111610a45576040517f08c379a0000000000000000000000000000000000000000000000000000000008152600401610a3c90611737565b60405180910390fd5b6000600260003373ffffffffffffffffffffffffffffffffffffffff1673ffffffffffffffffffffffffffffffffffffffff168152602001908152602001600020819055503373ffffffffffffffffffffffffffffffffffffffff166108fc829081150290604051600060405180830381858888f19350505050158015610ad0573d6000803e3d6000fd5b503373ffffffffffffffffffffffffffffffffffffffff167fd2ba84da58fee5faf229bb112f12eec4ff1d1be2f6b9c38440dd02d482b32cff82604051610b179190611817565b60405180910390a250565b60008054906101000a900473ffffffffffffffffffffffffffffffffffffffff1673ffffffffffffffffffffffffffffffffffffffff163373ffffffffffffffffffffffffffffffffffffffff1614610bb0576040517f08c379a0000000000000000000000000000000000000000000000000000000008152600401610ba790611757565b60405180910390fd5b60018060008373ffffffffffffffffffffffffffffffffffffffff1673ffffffffffffffffffffffffffffffffffffffff16815260200190815260200160002060006101000a81548160ff02191690831515021790555050565b60008054906101000a900473ffffffffffffffffffffffffffffffffffffffff1681565b600560019054906101000a900473ffffffffffffffffffffffffffffffffffffffff1673ffffffffffffffffffffffffffffffffffffffff163373ffffffffffffffffffffffffffffffffffffffff1614610cbe576040517f08c379a0000000000000000000000000000000000000000000000000000000008152600401610cb5906117d7565b60405180910390fd5b806003819055507f6bfd5e75539a9d2626425a2e2922675256b219fe546d63dad56011759b9a2f66600354604051610cf69190611817565b60405180910390a150565b600560019054906101000a900473ffffffffffffffffffffffffffffffffffffffff1673ffffffffffffffffffffffffffffffffffffffff163373ffffffffffffffffffffffffffffffffffffffff1614610d91576040517f08c379a0000000000000000000000000000000000000000000000000000000008152600401610d88906117d7565b60405180910390fd5b8060049080519060200190610da792919061125d565b507f247dfc144143a7b19594d51eb3a2fe0c40e43cf3cdcbe838f89d14a9389ed9088133604051610dd9929190611707565b60405180910390a150565b60035481565b60008054906101000a900473ffffffffffffffffffffffffffffffffffffffff1673ffffffffffffffffffffffffffffffffffffffff163373ffffffffffffffffffffffffffffffffffffffff1614610e78576040517f08c379a0000000000000000000000000000000000000000000000000000000008152600401610e6f90611757565b60405180910390fd5b80600560016101000a81548173ffffffffffffffffffffffffffffffffffffffff021916908373ffffffffffffffffffffffffffffffffffffffff1602179055508073ffffffffffffffffffffffffffffffffffffffff167f34cc20770a2c9854da32e676a7bdfa372d566222e4c449428c90dfc3e6a16c8e60405160405180910390a250565b60008054906101000a900473ffffffffffffffffffffffffffffffffffffffff1673ffffffffffffffffffffffffffffffffffffffff163373ffffffffffffffffffffffffffffffffffffffff1614610f8d576040517f08c379a0000000000000000000000000000000000000000000000000000000008152600401610f8490611757565b60405180910390fd5b600060026000600660009054906101000a900473ffffffffffffffffffffffffffffffffffffffff1673ffffffffffffffffffffffffffffffffffffffff1673ffffffffffffffffffffffffffffffffffffffff16815260200190815260200160002054905060008111611036576040517f08c379a000000000000000000000000000000000000000000000000000000000815260040161102d906117f7565b60405180910390fd5b600060026000600660009054906101000a900473ffffffffffffffffffffffffffffffffffffffff1673ffffffffffffffffffffffffffffffffffffffff1673ffffffffffffffffffffffffffffffffffffffff16815260200190815260200160002081905550600560019054906101000a900473ffffffffffffffffffffffffffffffffffffffff1673ffffffffffffffffffffffffffffffffffffffff166108fc829081150290604051600060405180830381858888f19350505050158015611105573d6000803e3d6000fd5b50600560019054906101000a900473ffffffffffffffffffffffffffffffffffffffff1673ffffffffffffffffffffffffffffffffffffffff167f4b5fe5991f10b990cca157ebeef8f20127ca1c20b4cc178508199eafb9cc14a38260405161116e9190611817565b60405180910390a250565b600660009054906101000a900473ffffffffffffffffffffffffffffffffffffffff1673ffffffffffffffffffffffffffffffffffffffff163373ffffffffffffffffffffffffffffffffffffffff1614611209576040517f08c379a0000000000000000000000000000000000000000000000000000000008152600401611200906117b7565b60405180910390fd5b80600560006101000a81548160ff0219169083151502179055507ff22391a24e34658cff344fa6d2f18e3c9c129ae16d4a49b193760d8dffc01a978160405161125291906116ca565b60405180910390a150565b8280546112699061198f565b90600052602060002090601f01602090048101928261128b57600085556112d2565b82601f106112a457805160ff19168380011785556112d2565b828001600101855582156112d2579182015b828111156112d15782518255916020019190600101906112b6565b5b5090506112df91906112e3565b5090565b5b808211156112fc5760008160009055506001016112e4565b5090565b600061131361130e84611863565b611832565b90508281526020810184848401111561132b57600080fd5b61133684828561194d565b509392505050565b60008135905061134d81611a5f565b92915050565b60008135905061136281611a76565b92915050565b600082601f83011261137957600080fd5b8135611389848260208601611300565b91505092915050565b6000813590506113a181611a8d565b92915050565b6000602082840312156113b957600080fd5b60006113c78482850161133e565b91505092915050565b6000602082840312156113e257600080fd5b60006113f084828501611353565b91505092915050565b60006020828403121561140b57600080fd5b600082013567ffffffffffffffff81111561142557600080fd5b61143184828501611368565b91505092915050565b60006020828403121561144c57600080fd5b600061145a84828501611392565b91505092915050565b61146c81611905565b82525050565b61147b81611917565b82525050565b600061148c82611893565b611496818561189e565b93506114a681856020860161195c565b6114af81611a4e565b840191505092915050565b60006114c760128361189e565b91507f4e6f207374616b6520746f2072657475726e00000000000000000000000000006000830152602082019050919050565b6000611507600d8361189e565b91507f4e6f7420746865206f776e6572000000000000000000000000000000000000006000830152602082019050919050565b600061154760278361189e565b91507f5374616b6520616d6f756e74206d75737420626520657175616c20746f20746860008301527f65207072696365000000000000000000000000000000000000000000000000006020830152604082019050919050565b60006115ad60168361189e565b91507f4e6f7420616e20616c6c6f7765642061646472657373000000000000000000006000830152602082019050919050565b60006115ed600d8361189e565b91507f4e6f7420746865206275796572000000000000000000000000000000000000006000830152602082019050919050565b600061162d600e8361189e565b91507f4e6f74207468652073656c6c65720000000000000000000000000000000000006000830152602082019050919050565b600061166d600f8361189e565b91507f4e6f207374616b6520746f2070617900000000000000000000000000000000006000830152602082019050919050565b6116a981611943565b82525050565b60006020820190506116c46000830184611463565b92915050565b60006020820190506116df6000830184611472565b92915050565b600060208201905081810360008301526116ff8184611481565b905092915050565b600060408201905081810360008301526117218185611481565b90506117306020830184611463565b9392505050565b60006020820190508181036000830152611750816114ba565b9050919050565b60006020820190508181036000830152611770816114fa565b9050919050565b600060208201905081810360008301526117908161153a565b9050919050565b600060208201905081810360008301526117b0816115a0565b9050919050565b600060208201905081810360008301526117d0816115e0565b9050919050565b600060208201905081810360008301526117f081611620565b9050919050565b6000602082019050818103600083015261181081611660565b9050919050565b600060208201905061182c60008301846116a0565b92915050565b6000604051905081810181811067ffffffffffffffff8211171561185957611858611a1f565b5b8060405250919050565b600067ffffffffffffffff82111561187e5761187d611a1f565b5b601f19601f8301169050602081019050919050565b600081519050919050565b600082825260208201905092915050565b60006118ba82611943565b91506118c583611943565b9250827fffffffffffffffffffffffffffffffffffffffffffffffffffffffffffffffff038211156118fa576118f96119c1565b5b828201905092915050565b600061191082611923565b9050919050565b60008115159050919050565b600073ffffffffffffffffffffffffffffffffffffffff82169050919050565b6000819050919050565b82818337600083830152505050565b60005b8381101561197a57808201518184015260208101905061195f565b83811115611989576000848401525b50505050565b600060028204905060018216806119a757607f821691505b602082108114156119bb576119ba6119f0565b5b50919050565b7f4e487b7100000000000000000000000000000000000000000000000000000000600052601160045260246000fd5b7f4e487b7100000000000000000000000000000000000000000000000000000000600052602260045260246000fd5b7f4e487b7100000000000000000000000000000000000000000000000000000000600052604160045260246000fd5b6000601f19601f8301169050919050565b611a6881611905565b8114611a7357600080fd5b50565b611a7f81611917565b8114611a8a57600080fd5b50565b611a9681611943565b8114611aa157600080fd5b5056fea26469706673582212206e751e02a19a849f1c2655fecfabdae354f7d1d78ba5728e44dcd7aeee3f50d764736f6c63430008000033",
  "linkReferences": {},
  "deployedLinkReferences": {}
}