{
  "_format": "hh-sol-artifact-1",
  "contractName": "SecretTextContract",
  "sourceName": "contracts/SecretTextContract.sol",
  "abi": [
    {
      "inputs": [],
      "stateMutability": "nonpayable",
      "type": "constructor"
    },
    {
      "anonymous": false,
      "inputs": [
        {
          "indexed": true,
          "internalType": "address",
          "name": "newBuyerAddress",
          "type": "address"
        }
      ],
      "name": "BuyerAddressSet",
      "type": "event"
    },
    {
      "anonymous": false,
      "inputs": [
        {
          "indexed": false,
          "internalType": "bool",
          "name": "newStatus",
          "type": "bool"
        }
      ],
      "name": "ConfirmSecretStatusSet",
      "type": "event"
    },
    {
      "anonymous": false,
      "inputs": [
        {
          "indexed": false,
          "internalType": "uint256",
          "name": "newPrice",
          "type": "uint256"
        }
      ],
      "name": "PriceSet",
      "type": "event"
    },
    {
      "anonymous": false,
      "inputs": [
        {
          "indexed": false,
          "internalType": "string",
          "name": "newSecretText",
          "type": "string"
        },
        {
          "indexed": false,
          "internalType": "address",
          "name": "setter",
          "type": "address"
        }
      ],
      "name": "SecretTextChanged",
      "type": "event"
    },
    {
      "anonymous": false,
      "inputs": [
        {
          "indexed": true,
          "internalType": "address",
          "name": "newSellerAddress",
          "type": "address"
        }
      ],
      "name": "SellerAddressSet",
      "type": "event"
    },
    {
      "anonymous": false,
      "inputs": [
        {
          "indexed": true,
          "internalType": "address",
          "name": "staker",
          "type": "address"
        },
        {
          "indexed": false,
          "internalType": "uint256",
          "name": "amount",
          "type": "uint256"
        }
      ],
      "name": "StakeAdded",
      "type": "event"
    },
    {
      "anonymous": false,
      "inputs": [
        {
          "indexed": true,
          "internalType": "address",
          "name": "owner",
          "type": "address"
        },
        {
          "indexed": false,
          "internalType": "uint256",
          "name": "amount",
          "type": "uint256"
        }
      ],
      "name": "StakePaidToSeller",
      "type": "event"
    },
    {
      "anonymous": false,
      "inputs": [
        {
          "indexed": true,
          "internalType": "address",
          "name": "staker",
          "type": "address"
        },
        {
          "indexed": false,
          "internalType": "uint256",
          "name": "amount",
          "type": "uint256"
        }
      ],
      "name": "StakeReturned",
      "type": "event"
    },
    {
      "inputs": [
        {
          "internalType": "address",
          "name": "_address",
          "type": "address"
        }
      ],
      "name": "addAllowedAddress",
      "outputs": [],
      "stateMutability": "nonpayable",
      "type": "function"
    },
    {
      "inputs": [],
      "name": "addStake",
      "outputs": [],
      "stateMutability": "payable",
      "type": "function"
    },
    {
      "inputs": [
        {
          "internalType": "address",
          "name": "",
          "type": "address"
        }
      ],
      "name": "allowedAddresses",
      "outputs": [
        {
          "internalType": "bool",
          "name": "",
          "type": "bool"
        }
      ],
      "stateMutability": "view",
      "type": "function"
    },
    {
      "inputs": [],
      "name": "buyerAddress",
      "outputs": [
        {
          "internalType": "address",
          "name": "",
          "type": "address"
        }
      ],
      "stateMutability": "view",
      "type": "function"
    },
    {
      "inputs": [],
      "name": "confirmSecretStatus",
      "outputs": [
        {
          "internalType": "bool",
          "name": "",
          "type": "bool"
        }
      ],
      "stateMutability": "view",
      "type": "function"
    },
    {
      "inputs": [],
      "name": "getSecretText",
      "outputs": [
        {
          "internalType": "string",
          "name": "",
          "type": "string"
        }
      ],
      "stateMutability": "view",
      "type": "function"
    },
    {
      "inputs": [],
      "name": "owner",
      "outputs": [
        {
          "internalType": "address",
          "name": "",
          "type": "address"
        }
      ],
      "stateMutability": "view",
      "type": "function"
    },
    {
      "inputs": [],
      "name": "payStakeToSeller",
      "outputs": [],
      "stateMutability": "nonpayable",
      "type": "function"
    },
    {
      "inputs": [],
      "name": "price",
      "outputs": [
        {
          "internalType": "uint256",
          "name": "",
          "type": "uint256"
        }
      ],
      "stateMutability": "view",
      "type": "function"
    },
    {
      "inputs": [
        {
          "internalType": "address",
          "name": "_address",
          "type": "address"
        }
      ],
      "name": "removeAllowedAddress",
      "outputs": [],
      "stateMutability": "nonpayable",
      "type": "function"
    },
    {
      "inputs": [],
      "name": "returnStake",
      "outputs": [],
      "stateMutability": "nonpayable",
      "type": "function"
    },
    {
      "inputs": [],
      "name": "sellerAddress",
      "outputs": [
        {
          "internalType": "address",
          "name": "",
          "type": "address"
        }
      ],
      "stateMutability": "view",
      "type": "function"
    },
    {
      "inputs": [
        {
          "internalType": "address",
          "name": "_buyerAddress",
          "type": "address"
        }
      ],
      "name": "setBuyerAddress",
      "outputs": [],
      "stateMutability": "nonpayable",
      "type": "function"
    },
    {
      "inputs": [
        {
          "internalType": "bool",
          "name": "_status",
          "type": "bool"
        }
      ],
      "name": "setConfirmSecretStatus",
      "outputs": [],
      "stateMutability": "nonpayable",
      "type": "function"
    },
    {
      "inputs": [
        {
          "internalType": "uint256",
          "name": "_price",
          "type": "uint256"
        }
      ],
      "name": "setPrice",
      "outputs": [],
      "stateMutability": "nonpayable",
      "type": "function"
    },
    {
      "inputs": [
        {
          "internalType": "string",
          "name": "_secretText",
          "type": "string"
        }
      ],
      "name": "setSecretText",
      "outputs": [],
      "stateMutability": "nonpayable",
      "type": "function"
    },
    {
      "inputs": [
        {
          "internalType": "address",
          "name": "_sellerAddress",
          "type": "address"
        }
      ],
      "name": "setSellerAddress",
      "outputs": [],
      "stateMutability": "nonpayable",
      "type": "function"
    },
    {
      "inputs": [
        {
          "internalType": "address",
          "name": "",
          "type": "address"
        }
      ],
      "name": "stakes",
      "outputs": [
        {
          "internalType": "uint256",
          "name": "",
          "type": "uint256"
        }
      ],
      "stateMutability": "view",
      "type": "function"
    }
  ],
  "bytecode": "0x608060405234801561001057600080fd5b50336000806101000a81548173ffffffffffffffffffffffffffffffffffffffff021916908373ffffffffffffffffffffffffffffffffffffffff160217905550611be0806100606000396000f3fe6080604052600436106101095760003560e01c80637ac665741161009557806393d1c44e1161006457806393d1c44e14610324578063a035b1fe1461034d578063a12df12e14610378578063f4d78965146103a1578063fac19988146103b857610109565b80637ac665741461029057806381788e2b146102a75780638da5cb5b146102d057806391b7f5ed146102fb57610109565b80633c9d93b8116100dc5780633c9d93b8146101ca5780633d9b2ae6146101f35780634120657a1461021e57806344834aca1461025b5780635a627dbc1461028657610109565b806310a5b9081461010e57806316934fc414610139578063172989ce146101765780631b697bb2146101a1575b600080fd5b34801561011a57600080fd5b506101236103e1565b60405161013091906117eb565b60405180910390f35b34801561014557600080fd5b50610160600480360381019061015b91906114ad565b610605565b60405161016d919061191d565b60405180910390f35b34801561018257600080fd5b5061018b61061d565b60405161019891906117d0565b60405180910390f35b3480156101ad57600080fd5b506101c860048036038101906101c391906114ad565b610630565b005b3480156101d657600080fd5b506101f160048036038101906101ec91906114ad565b610745565b005b3480156101ff57600080fd5b5061020861082e565b60405161021591906117b5565b60405180910390f35b34801561022a57600080fd5b50610245600480360381019061024091906114ad565b610854565b60405161025291906117d0565b60405180910390f35b34801561026757600080fd5b50610270610874565b60405161027d91906117b5565b60405180910390f35b61028e61089a565b005b34801561029c57600080fd5b506102a5610a14565b005b3480156102b357600080fd5b506102ce60048036038101906102c991906114ad565b610c28565b005b3480156102dc57600080fd5b506102e5610d10565b6040516102f291906117b5565b60405180910390f35b34801561030757600080fd5b50610322600480360381019061031d9190611540565b610d34565b005b34801561033057600080fd5b5061034b600480360381019061034691906114ff565b610e07565b005b34801561035957600080fd5b50610362610eea565b60405161036f919061191d565b60405180910390f35b34801561038457600080fd5b5061039f600480360381019061039a91906114ad565b610ef0565b005b3480156103ad57600080fd5b506103b6611005565b005b3480156103c457600080fd5b506103df60048036038101906103da91906114d6565b61127f565b005b6060600160003373ffffffffffffffffffffffffffffffffffffffff1673ffffffffffffffffffffffffffffffffffffffff16815260200190815260200160002060009054906101000a900460ff16806104885750600560019054906101000a900473ffffffffffffffffffffffffffffffffffffffff1673ffffffffffffffffffffffffffffffffffffffff163373ffffffffffffffffffffffffffffffffffffffff16145b806104e05750600660009054906101000a900473ffffffffffffffffffffffffffffffffffffffff1673ffffffffffffffffffffffffffffffffffffffff163373ffffffffffffffffffffffffffffffffffffffff16145b80610536575060008054906101000a900473ffffffffffffffffffffffffffffffffffffffff1673ffffffffffffffffffffffffffffffffffffffff163373ffffffffffffffffffffffffffffffffffffffff16145b610575576040517f08c379a000000000000000000000000000000000000000000000000000000000815260040161056c9061189d565b60405180910390fd5b6004805461058290611a95565b80601f01602080910402602001604051908101604052809291908181526020018280546105ae90611a95565b80156105fb5780601f106105d0576101008083540402835291602001916105fb565b820191906000526020600020905b8154815290600101906020018083116105de57829003601f168201915b5050505050905090565b60026020528060005260406000206000915090505481565b600560009054906101000a900460ff1681565b60008054906101000a900473ffffffffffffffffffffffffffffffffffffffff1673ffffffffffffffffffffffffffffffffffffffff163373ffffffffffffffffffffffffffffffffffffffff16146106be576040517f08c379a00000000000000000000000000000000000000000000000000000000081526004016106b59061185d565b60405180910390fd5b80600660006101000a81548173ffffffffffffffffffffffffffffffffffffffff021916908373ffffffffffffffffffffffffffffffffffffffff1602179055508073ffffffffffffffffffffffffffffffffffffffff167fcd02002fe332b099bf26c14f8402cf0fb088aeea918cae00c687a874a1017f6460405160405180910390a250565b60008054906101000a900473ffffffffffffffffffffffffffffffffffffffff1673ffffffffffffffffffffffffffffffffffffffff163373ffffffffffffffffffffffffffffffffffffffff16146107d3576040517f08c379a00000000000000000000000000000000000000000000000000000000081526004016107ca9061185d565b60405180910390fd5b6000600160008373ffffffffffffffffffffffffffffffffffffffff1673ffffffffffffffffffffffffffffffffffffffff16815260200190815260200160002060006101000a81548160ff02191690831515021790555050565b600560019054906101000a900473ffffffffffffffffffffffffffffffffffffffff1681565b60016020528060005260406000206000915054906101000a900460ff1681565b600660009054906101000a900473ffffffffffffffffffffffffffffffffffffffff1681565b600660009054906101000a900473ffffffffffffffffffffffffffffffffffffffff1673ffffffffffffffffffffffffffffffffffffffff163373ffffffffffffffffffffffffffffffffffffffff161461092a576040517f08c379a0000000000000000000000000000000000000000000000000000000008152600401610921906118bd565b60405180910390fd5b600354341461096e576040517f08c379a00000000000000000000000000000000000000000000000000000000081526004016109659061187d565b60405180910390fd5b34600260003373ffffffffffffffffffffffffffffffffffffffff1673ffffffffffffffffffffffffffffffffffffffff16815260200190815260200160002060008282546109bd91906119b5565b925050819055503373ffffffffffffffffffffffffffffffffffffffff167f7c717985ac273e663b7f3050f5b15a4388ff6ed952338954f650e2093e13937f34604051610a0a919061191d565b60405180910390a2565b60008054906101000a900473ffffffffffffffffffffffffffffffffffffffff1673ffffffffffffffffffffffffffffffffffffffff163373ffffffffffffffffffffffffffffffffffffffff1614610aa2576040517f08c379a0000000000000000000000000000000000000000000000000000000008152600401610a999061185d565b60405180910390fd5b600060026000600560019054906101000a900473ffffffffffffffffffffffffffffffffffffffff1673ffffffffffffffffffffffffffffffffffffffff1673ffffffffffffffffffffffffffffffffffffffff16815260200190815260200160002054905060008111610b4b576040517f08c379a0000000000000000000000000000000000000000000000000000000008152600401610b429061183d565b60405180910390fd5b6000600260003373ffffffffffffffffffffffffffffffffffffffff1673ffffffffffffffffffffffffffffffffffffffff168152602001908152602001600020819055503373ffffffffffffffffffffffffffffffffffffffff166108fc829081150290604051600060405180830381858888f19350505050158015610bd6573d6000803e3d6000fd5b503373ffffffffffffffffffffffffffffffffffffffff167fd2ba84da58fee5faf229bb112f12eec4ff1d1be2f6b9c38440dd02d482b32cff82604051610c1d919061191d565b60405180910390a250565b60008054906101000a900473ffffffffffffffffffffffffffffffffffffffff1673ffffffffffffffffffffffffffffffffffffffff163373ffffffffffffffffffffffffffffffffffffffff1614610cb6576040517f08c379a0000000000000000000000000000000000000000000000000000000008152600401610cad9061185d565b60405180910390fd5b60018060008373ffffffffffffffffffffffffffffffffffffffff1673ffffffffffffffffffffffffffffffffffffffff16815260200190815260200160002060006101000a81548160ff02191690831515021790555050565b60008054906101000a900473ffffffffffffffffffffffffffffffffffffffff1681565b600560019054906101000a900473ffffffffffffffffffffffffffffffffffffffff1673ffffffffffffffffffffffffffffffffffffffff163373ffffffffffffffffffffffffffffffffffffffff1614610dc4576040517f08c379a0000000000000000000000000000000000000000000000000000000008152600401610dbb906118dd565b60405180910390fd5b806003819055507f6bfd5e75539a9d2626425a2e2922675256b219fe546d63dad56011759b9a2f66600354604051610dfc919061191d565b60405180910390a150565b600560019054906101000a900473ffffffffffffffffffffffffffffffffffffffff1673ffffffffffffffffffffffffffffffffffffffff163373ffffffffffffffffffffffffffffffffffffffff1614610e97576040517f08c379a0000000000000000000000000000000000000000000000000000000008152600401610e8e906118dd565b60405180910390fd5b8060049080519060200190610ead929190611363565b507f247dfc144143a7b19594d51eb3a2fe0c40e43cf3cdcbe838f89d14a9389ed9088133604051610edf92919061180d565b60405180910390a150565b60035481565b60008054906101000a900473ffffffffffffffffffffffffffffffffffffffff1673ffffffffffffffffffffffffffffffffffffffff163373ffffffffffffffffffffffffffffffffffffffff1614610f7e576040517f08c379a0000000000000000000000000000000000000000000000000000000008152600401610f759061185d565b60405180910390fd5b80600560016101000a81548173ffffffffffffffffffffffffffffffffffffffff021916908373ffffffffffffffffffffffffffffffffffffffff1602179055508073ffffffffffffffffffffffffffffffffffffffff167f34cc20770a2c9854da32e676a7bdfa372d566222e4c449428c90dfc3e6a16c8e60405160405180910390a250565b60008054906101000a900473ffffffffffffffffffffffffffffffffffffffff1673ffffffffffffffffffffffffffffffffffffffff163373ffffffffffffffffffffffffffffffffffffffff1614611093576040517f08c379a000000000000000000000000000000000000000000000000000000000815260040161108a9061185d565b60405180910390fd5b600060026000600660009054906101000a900473ffffffffffffffffffffffffffffffffffffffff1673ffffffffffffffffffffffffffffffffffffffff1673ffffffffffffffffffffffffffffffffffffffff1681526020019081526020016000205490506000811161113c576040517f08c379a0000000000000000000000000000000000000000000000000000000008152600401611133906118fd565b60405180910390fd5b600060026000600660009054906101000a900473ffffffffffffffffffffffffffffffffffffffff1673ffffffffffffffffffffffffffffffffffffffff1673ffffffffffffffffffffffffffffffffffffffff16815260200190815260200160002081905550600560019054906101000a900473ffffffffffffffffffffffffffffffffffffffff1673ffffffffffffffffffffffffffffffffffffffff166108fc829081150290604051600060405180830381858888f1935050505015801561120b573d6000803e3d6000fd5b50600560019054906101000a900473ffffffffffffffffffffffffffffffffffffffff1673ffffffffffffffffffffffffffffffffffffffff167f4b5fe5991f10b990cca157ebeef8f20127ca1c20b4cc178508199eafb9cc14a382604051611274919061191d565b60405180910390a250565b600660009054906101000a900473ffffffffffffffffffffffffffffffffffffffff1673ffffffffffffffffffffffffffffffffffffffff163373ffffffffffffffffffffffffffffffffffffffff161461130f576040517f08c379a0000000000000000000000000000000000000000000000000000000008152600401611306906118bd565b60405180910390fd5b80600560006101000a81548160ff0219169083151502179055507ff22391a24e34658cff344fa6d2f18e3c9c129ae16d4a49b193760d8dffc01a978160405161135891906117d0565b60405180910390a150565b82805461136f90611a95565b90600052602060002090601f01602090048101928261139157600085556113d8565b82601f106113aa57805160ff19168380011785556113d8565b828001600101855582156113d8579182015b828111156113d75782518255916020019190600101906113bc565b5b5090506113e591906113e9565b5090565b5b808211156114025760008160009055506001016113ea565b5090565b600061141961141484611969565b611938565b90508281526020810184848401111561143157600080fd5b61143c848285611a53565b509392505050565b60008135905061145381611b65565b92915050565b60008135905061146881611b7c565b92915050565b600082601f83011261147f57600080fd5b813561148f848260208601611406565b91505092915050565b6000813590506114a781611b93565b92915050565b6000602082840312156114bf57600080fd5b60006114cd84828501611444565b91505092915050565b6000602082840312156114e857600080fd5b60006114f684828501611459565b91505092915050565b60006020828403121561151157600080fd5b600082013567ffffffffffffffff81111561152b57600080fd5b6115378482850161146e565b91505092915050565b60006020828403121561155257600080fd5b600061156084828501611498565b91505092915050565b61157281611a0b565b82525050565b61158181611a1d565b82525050565b600061159282611999565b61159c81856119a4565b93506115ac818560208601611a62565b6115b581611b54565b840191505092915050565b60006115cd6012836119a4565b91507f4e6f207374616b6520746f2072657475726e00000000000000000000000000006000830152602082019050919050565b600061160d600d836119a4565b91507f4e6f7420746865206f776e6572000000000000000000000000000000000000006000830152602082019050919050565b600061164d6027836119a4565b91507f5374616b6520616d6f756e74206d75737420626520657175616c20746f20746860008301527f65207072696365000000000000000000000000000000000000000000000000006020830152604082019050919050565b60006116b36016836119a4565b91507f4e6f7420616e20616c6c6f7765642061646472657373000000000000000000006000830152602082019050919050565b60006116f3600d836119a4565b91507f4e6f7420746865206275796572000000000000000000000000000000000000006000830152602082019050919050565b6000611733600e836119a4565b91507f4e6f74207468652073656c6c65720000000000000000000000000000000000006000830152602082019050919050565b6000611773600f836119a4565b91507f4e6f207374616b6520746f2070617900000000000000000000000000000000006000830152602082019050919050565b6117af81611a49565b82525050565b60006020820190506117ca6000830184611569565b92915050565b60006020820190506117e56000830184611578565b92915050565b600060208201905081810360008301526118058184611587565b905092915050565b600060408201905081810360008301526118278185611587565b90506118366020830184611569565b9392505050565b60006020820190508181036000830152611856816115c0565b9050919050565b6000602082019050818103600083015261187681611600565b9050919050565b6000602082019050818103600083015261189681611640565b9050919050565b600060208201905081810360008301526118b6816116a6565b9050919050565b600060208201905081810360008301526118d6816116e6565b9050919050565b600060208201905081810360008301526118f681611726565b9050919050565b6000602082019050818103600083015261191681611766565b9050919050565b600060208201905061193260008301846117a6565b92915050565b6000604051905081810181811067ffffffffffffffff8211171561195f5761195e611b25565b5b8060405250919050565b600067ffffffffffffffff82111561198457611983611b25565b5b601f19601f8301169050602081019050919050565b600081519050919050565b600082825260208201905092915050565b60006119c082611a49565b91506119cb83611a49565b9250827fffffffffffffffffffffffffffffffffffffffffffffffffffffffffffffffff03821115611a00576119ff611ac7565b5b828201905092915050565b6000611a1682611a29565b9050919050565b60008115159050919050565b600073ffffffffffffffffffffffffffffffffffffffff82169050919050565b6000819050919050565b82818337600083830152505050565b60005b83811015611a80578082015181840152602081019050611a65565b83811115611a8f576000848401525b50505050565b60006002820490506001821680611aad57607f821691505b60208210811415611ac157611ac0611af6565b5b50919050565b7f4e487b7100000000000000000000000000000000000000000000000000000000600052601160045260246000fd5b7f4e487b7100000000000000000000000000000000000000000000000000000000600052602260045260246000fd5b7f4e487b7100000000000000000000000000000000000000000000000000000000600052604160045260246000fd5b6000601f19601f8301169050919050565b611b6e81611a0b565b8114611b7957600080fd5b50565b611b8581611a1d565b8114611b9057600080fd5b50565b611b9c81611a49565b8114611ba757600080fd5b5056fea2646970667358221220a46450b9c4d43cd873eae0ae2e2230a99f8b6082b733e8302604d696e0bfb02164736f6c63430008000033",
  "linkReferences": {},
  "deployedLinkReferences": {}
}