{
  "_format": "hh-sol-artifact-1",
  "contractName": "SecretTextContract",
  "sourceName": "contracts/SecretTextContract.sol",
  "abi": [
    {
      "inputs": [],
      "stateMutability": "nonpayable",
      "type": "constructor"
    },
    {
      "anonymous": false,
      "inputs": [
        {
          "indexed": false,
          "internalType": "bool",
          "name": "newStatus",
          "type": "bool"
        }
      ],
      "name": "ConfirmSecretStatusSet",
      "type": "event"
    },
    {
      "anonymous": false,
      "inputs": [
        {
          "indexed": false,
          "internalType": "string",
          "name": "newSecretText",
          "type": "string"
        },
        {
          "indexed": false,
          "internalType": "address",
          "name": "setter",
          "type": "address"
        }
      ],
      "name": "SecretTextChanged",
      "type": "event"
    },
    {
      "anonymous": false,
      "inputs": [
        {
          "indexed": true,
          "internalType": "address",
          "name": "staker",
          "type": "address"
        },
        {
          "indexed": false,
          "internalType": "uint256",
          "name": "amount",
          "type": "uint256"
        }
      ],
      "name": "StakeAdded",
      "type": "event"
    },
    {
      "anonymous": false,
      "inputs": [
        {
          "indexed": true,
          "internalType": "address",
          "name": "owner",
          "type": "address"
        },
        {
          "indexed": false,
          "internalType": "uint256",
          "name": "amount",
          "type": "uint256"
        }
      ],
      "name": "StakePaidToOwner",
      "type": "event"
    },
    {
      "anonymous": false,
      "inputs": [
        {
          "indexed": true,
          "internalType": "address",
          "name": "staker",
          "type": "address"
        },
        {
          "indexed": false,
          "internalType": "uint256",
          "name": "amount",
          "type": "uint256"
        }
      ],
      "name": "StakeReturned",
      "type": "event"
    },
    {
      "inputs": [
        {
          "internalType": "address",
          "name": "_address",
          "type": "address"
        }
      ],
      "name": "addAllowedAddress",
      "outputs": [],
      "stateMutability": "nonpayable",
      "type": "function"
    },
    {
      "inputs": [],
      "name": "addStake",
      "outputs": [],
      "stateMutability": "payable",
      "type": "function"
    },
    {
      "inputs": [
        {
          "internalType": "address",
          "name": "",
          "type": "address"
        }
      ],
      "name": "allowedAddresses",
      "outputs": [
        {
          "internalType": "bool",
          "name": "",
          "type": "bool"
        }
      ],
      "stateMutability": "view",
      "type": "function"
    },
    {
      "inputs": [],
      "name": "confirmSecretStatus",
      "outputs": [
        {
          "internalType": "bool",
          "name": "",
          "type": "bool"
        }
      ],
      "stateMutability": "view",
      "type": "function"
    },
    {
      "inputs": [
        {
          "internalType": "uint256",
          "name": "index",
          "type": "uint256"
        }
      ],
      "name": "getSecretText",
      "outputs": [
        {
          "internalType": "string",
          "name": "",
          "type": "string"
        }
      ],
      "stateMutability": "view",
      "type": "function"
    },
    {
      "inputs": [],
      "name": "getSecretTextsCount",
      "outputs": [
        {
          "internalType": "uint256",
          "name": "",
          "type": "uint256"
        }
      ],
      "stateMutability": "view",
      "type": "function"
    },
    {
      "inputs": [],
      "name": "owner",
      "outputs": [
        {
          "internalType": "address",
          "name": "",
          "type": "address"
        }
      ],
      "stateMutability": "view",
      "type": "function"
    },
    {
      "inputs": [],
      "name": "payStakeToOwner",
      "outputs": [],
      "stateMutability": "nonpayable",
      "type": "function"
    },
    {
      "inputs": [
        {
          "internalType": "address",
          "name": "_address",
          "type": "address"
        }
      ],
      "name": "removeAllowedAddress",
      "outputs": [],
      "stateMutability": "nonpayable",
      "type": "function"
    },
    {
      "inputs": [],
      "name": "returnStake",
      "outputs": [],
      "stateMutability": "nonpayable",
      "type": "function"
    },
    {
      "inputs": [
        {
          "internalType": "bool",
          "name": "_status",
          "type": "bool"
        }
      ],
      "name": "setConfirmSecretStatus",
      "outputs": [],
      "stateMutability": "nonpayable",
      "type": "function"
    },
    {
      "inputs": [
        {
          "internalType": "string",
          "name": "_secretText",
          "type": "string"
        }
      ],
      "name": "setSecretText",
      "outputs": [],
      "stateMutability": "nonpayable",
      "type": "function"
    },
    {
      "inputs": [
        {
          "internalType": "address",
          "name": "",
          "type": "address"
        }
      ],
      "name": "stakes",
      "outputs": [
        {
          "internalType": "uint256",
          "name": "",
          "type": "uint256"
        }
      ],
      "stateMutability": "view",
      "type": "function"
    }
  ],
  "bytecode": "0x608060405234801561001057600080fd5b50336000806101000a81548173ffffffffffffffffffffffffffffffffffffffff021916908373ffffffffffffffffffffffffffffffffffffffff1602179055506114c5806100606000396000f3fe6080604052600436106100c25760003560e01c806381788e2b1161007f57806393d1c44e1161005957806393d1c44e14610247578063b72905b114610270578063fac199881461029b578063fc4b6308146102c4576100c2565b806381788e2b146101b6578063852b7667146101df5780638da5cb5b1461021c576100c2565b806316934fc4146100c7578063172989ce146101045780633c9d93b81461012f5780634120657a146101585780635a627dbc146101955780637ac665741461019f575b600080fd5b3480156100d357600080fd5b506100ee60048036038101906100e99190610df2565b6102db565b6040516100fb9190611202565b60405180910390f35b34801561011057600080fd5b506101196102f3565b60405161012691906110d5565b60405180910390f35b34801561013b57600080fd5b5061015660048036038101906101519190610df2565b610306565b005b34801561016457600080fd5b5061017f600480360381019061017a9190610df2565b6103ef565b60405161018c91906110d5565b60405180910390f35b61019d61040f565b005b3480156101ab57600080fd5b506101b46104f8565b005b3480156101c257600080fd5b506101dd60048036038101906101d89190610df2565b61065c565b005b3480156101eb57600080fd5b5061020660048036038101906102019190610e85565b610744565b60405161021391906110f0565b60405180910390f35b34801561022857600080fd5b506102316108ed565b60405161023e91906110ba565b60405180910390f35b34801561025357600080fd5b5061026e60048036038101906102699190610e44565b610911565b005b34801561027c57600080fd5b50610285610a15565b6040516102929190611202565b60405180910390f35b3480156102a757600080fd5b506102c260048036038101906102bd9190610e1b565b610a22565b005b3480156102d057600080fd5b506102d9610b04565b005b60026020528060005260406000206000915090505481565b600460009054906101000a900460ff1681565b60008054906101000a900473ffffffffffffffffffffffffffffffffffffffff1673ffffffffffffffffffffffffffffffffffffffff163373ffffffffffffffffffffffffffffffffffffffff1614610394576040517f08c379a000000000000000000000000000000000000000000000000000000000815260040161038b90611162565b60405180910390fd5b6000600160008373ffffffffffffffffffffffffffffffffffffffff1673ffffffffffffffffffffffffffffffffffffffff16815260200190815260200160002060006101000a81548160ff02191690831515021790555050565b60016020528060005260406000206000915054906101000a900460ff1681565b60003411610452576040517f08c379a0000000000000000000000000000000000000000000000000000000008152600401610449906111a2565b60405180910390fd5b34600260003373ffffffffffffffffffffffffffffffffffffffff1673ffffffffffffffffffffffffffffffffffffffff16815260200190815260200160002060008282546104a1919061129a565b925050819055503373ffffffffffffffffffffffffffffffffffffffff167f7c717985ac273e663b7f3050f5b15a4388ff6ed952338954f650e2093e13937f346040516104ee9190611202565b60405180910390a2565b6000600260003373ffffffffffffffffffffffffffffffffffffffff1673ffffffffffffffffffffffffffffffffffffffff1681526020019081526020016000205490506000811161057f576040517f08c379a000000000000000000000000000000000000000000000000000000000815260040161057690611142565b60405180910390fd5b6000600260003373ffffffffffffffffffffffffffffffffffffffff1673ffffffffffffffffffffffffffffffffffffffff168152602001908152602001600020819055503373ffffffffffffffffffffffffffffffffffffffff166108fc829081150290604051600060405180830381858888f1935050505015801561060a573d6000803e3d6000fd5b503373ffffffffffffffffffffffffffffffffffffffff167fd2ba84da58fee5faf229bb112f12eec4ff1d1be2f6b9c38440dd02d482b32cff826040516106519190611202565b60405180910390a250565b60008054906101000a900473ffffffffffffffffffffffffffffffffffffffff1673ffffffffffffffffffffffffffffffffffffffff163373ffffffffffffffffffffffffffffffffffffffff16146106ea576040517f08c379a00000000000000000000000000000000000000000000000000000000081526004016106e190611162565b60405180910390fd5b60018060008373ffffffffffffffffffffffffffffffffffffffff1673ffffffffffffffffffffffffffffffffffffffff16815260200190815260200160002060006101000a81548160ff02191690831515021790555050565b6060600160003373ffffffffffffffffffffffffffffffffffffffff1673ffffffffffffffffffffffffffffffffffffffff16815260200190815260200160002060009054906101000a900460ff166107d2576040517f08c379a00000000000000000000000000000000000000000000000000000000081526004016107c990611182565b60405180910390fd5b6003805490508210610819576040517f08c379a0000000000000000000000000000000000000000000000000000000008152600401610810906111e2565b60405180910390fd5b60038281548110610853577f4e487b7100000000000000000000000000000000000000000000000000000000600052603260045260246000fd5b9060005260206000200180546108689061137a565b80601f01602080910402602001604051908101604052809291908181526020018280546108949061137a565b80156108e15780601f106108b6576101008083540402835291602001916108e1565b820191906000526020600020905b8154815290600101906020018083116108c457829003601f168201915b50505050509050919050565b60008054906101000a900473ffffffffffffffffffffffffffffffffffffffff1681565b600160003373ffffffffffffffffffffffffffffffffffffffff1673ffffffffffffffffffffffffffffffffffffffff16815260200190815260200160002060009054906101000a900460ff1661099d576040517f08c379a000000000000000000000000000000000000000000000000000000000815260040161099490611182565b60405180910390fd5b6003819080600181540180825580915050600190039060005260206000200160009091909190915090805190602001906109d8929190610ca8565b507f247dfc144143a7b19594d51eb3a2fe0c40e43cf3cdcbe838f89d14a9389ed9088133604051610a0a929190611112565b60405180910390a150565b6000600380549050905090565b60008054906101000a900473ffffffffffffffffffffffffffffffffffffffff1673ffffffffffffffffffffffffffffffffffffffff163373ffffffffffffffffffffffffffffffffffffffff1614610ab0576040517f08c379a0000000000000000000000000000000000000000000000000000000008152600401610aa790611162565b60405180910390fd5b80600460006101000a81548160ff0219169083151502179055507ff22391a24e34658cff344fa6d2f18e3c9c129ae16d4a49b193760d8dffc01a9781604051610af991906110d5565b60405180910390a150565b6000600260003373ffffffffffffffffffffffffffffffffffffffff1673ffffffffffffffffffffffffffffffffffffffff16815260200190815260200160002054905060008111610b8b576040517f08c379a0000000000000000000000000000000000000000000000000000000008152600401610b82906111c2565b60405180910390fd5b6000600260003373ffffffffffffffffffffffffffffffffffffffff1673ffffffffffffffffffffffffffffffffffffffff1681526020019081526020016000208190555060008054906101000a900473ffffffffffffffffffffffffffffffffffffffff1673ffffffffffffffffffffffffffffffffffffffff166108fc829081150290604051600060405180830381858888f19350505050158015610c36573d6000803e3d6000fd5b5060008054906101000a900473ffffffffffffffffffffffffffffffffffffffff1673ffffffffffffffffffffffffffffffffffffffff167fa413679427d460277e02c4d916c4235d7e835fa7056bd089a78ee62e097f731c82604051610c9d9190611202565b60405180910390a250565b828054610cb49061137a565b90600052602060002090601f016020900481019282610cd65760008555610d1d565b82601f10610cef57805160ff1916838001178555610d1d565b82800160010185558215610d1d579182015b82811115610d1c578251825591602001919060010190610d01565b5b509050610d2a9190610d2e565b5090565b5b80821115610d47576000816000905550600101610d2f565b5090565b6000610d5e610d598461124e565b61121d565b905082815260208101848484011115610d7657600080fd5b610d81848285611338565b509392505050565b600081359050610d988161144a565b92915050565b600081359050610dad81611461565b92915050565b600082601f830112610dc457600080fd5b8135610dd4848260208601610d4b565b91505092915050565b600081359050610dec81611478565b92915050565b600060208284031215610e0457600080fd5b6000610e1284828501610d89565b91505092915050565b600060208284031215610e2d57600080fd5b6000610e3b84828501610d9e565b91505092915050565b600060208284031215610e5657600080fd5b600082013567ffffffffffffffff811115610e7057600080fd5b610e7c84828501610db3565b91505092915050565b600060208284031215610e9757600080fd5b6000610ea584828501610ddd565b91505092915050565b610eb7816112f0565b82525050565b610ec681611302565b82525050565b6000610ed78261127e565b610ee18185611289565b9350610ef1818560208601611347565b610efa81611439565b840191505092915050565b6000610f12601283611289565b91507f4e6f207374616b6520746f2072657475726e00000000000000000000000000006000830152602082019050919050565b6000610f52600d83611289565b91507f4e6f7420746865206f776e6572000000000000000000000000000000000000006000830152602082019050919050565b6000610f92601683611289565b91507f4e6f7420616e20616c6c6f7765642061646472657373000000000000000000006000830152602082019050919050565b6000610fd2602383611289565b91507f5374616b6520616d6f756e74206d75737420626520677265617465722074686160008301527f6e203000000000000000000000000000000000000000000000000000000000006020830152604082019050919050565b6000611038600f83611289565b91507f4e6f207374616b6520746f2070617900000000000000000000000000000000006000830152602082019050919050565b6000611078601383611289565b91507f496e646578206f7574206f6620626f756e6473000000000000000000000000006000830152602082019050919050565b6110b48161132e565b82525050565b60006020820190506110cf6000830184610eae565b92915050565b60006020820190506110ea6000830184610ebd565b92915050565b6000602082019050818103600083015261110a8184610ecc565b905092915050565b6000604082019050818103600083015261112c8185610ecc565b905061113b6020830184610eae565b9392505050565b6000602082019050818103600083015261115b81610f05565b9050919050565b6000602082019050818103600083015261117b81610f45565b9050919050565b6000602082019050818103600083015261119b81610f85565b9050919050565b600060208201905081810360008301526111bb81610fc5565b9050919050565b600060208201905081810360008301526111db8161102b565b9050919050565b600060208201905081810360008301526111fb8161106b565b9050919050565b600060208201905061121760008301846110ab565b92915050565b6000604051905081810181811067ffffffffffffffff821117156112445761124361140a565b5b8060405250919050565b600067ffffffffffffffff8211156112695761126861140a565b5b601f19601f8301169050602081019050919050565b600081519050919050565b600082825260208201905092915050565b60006112a58261132e565b91506112b08361132e565b9250827fffffffffffffffffffffffffffffffffffffffffffffffffffffffffffffffff038211156112e5576112e46113ac565b5b828201905092915050565b60006112fb8261130e565b9050919050565b60008115159050919050565b600073ffffffffffffffffffffffffffffffffffffffff82169050919050565b6000819050919050565b82818337600083830152505050565b60005b8381101561136557808201518184015260208101905061134a565b83811115611374576000848401525b50505050565b6000600282049050600182168061139257607f821691505b602082108114156113a6576113a56113db565b5b50919050565b7f4e487b7100000000000000000000000000000000000000000000000000000000600052601160045260246000fd5b7f4e487b7100000000000000000000000000000000000000000000000000000000600052602260045260246000fd5b7f4e487b7100000000000000000000000000000000000000000000000000000000600052604160045260246000fd5b6000601f19601f8301169050919050565b611453816112f0565b811461145e57600080fd5b50565b61146a81611302565b811461147557600080fd5b50565b6114818161132e565b811461148c57600080fd5b5056fea2646970667358221220294b0f65ae0837dc2247a924f1e3069342e9fa30847fa72b4ef1d4af9b40510464736f6c63430008000033",
  "linkReferences": {},
  "deployedLinkReferences": {}
}